:1000000001308A008D2900000A108A100A11820727
:100010003F3406345B344F3466346D347D340734FA
:100020007F346F342A082C068039AE00AA1F1D28A1
:10003000A909AA09A90A0319AA0AAC1F2428AB090D
:10004000AC09AB0A0319AC0AF801F901F701FA018E
:100050002C08031D2E282B08031948281030AD004A
:100060000310A90DAA0DF70DFA0D2C087A02031D35
:100070003B282B087702031C44282B08F702031C9B
:10008000FA032C08FA020314F80DF90DAD0B302811
:10009000AE1F4F28F809F909F80A0319F90A0800F0
:1000A0002608AA002508A900AC010A30AB001220DE
:1000B0007708A7007A08A800FA0077080420F8005B
:1000C000A1002608AA002508A900AC010A30AB004F
:1000D00012207908A8007808A7007908AA007808F3
:1000E000A900AC010A30AB0012207708A7007A08FB
:1000F000A800FA0077080420F800A000A61B8628B4
:10010000A608031D87282508093C0318A00108003C
:10011000263084008313000803199B280630F8005A
:10012000F701F70B9128F80B90287B30F700F70BBD
:100130009728800B8E2808008316880183122108D7
:1001400088002410240883168700831207140130C6
:10015000A600882024102408831687008312071025
:1001600083168801831220088800A41024088316AF
:100170008700831287140130A6008820A410240869
:1001800083168700831287100800A5012508093C03
:10019000031CCD289C20A50AC6280800260828068E
:1001A0008039AA00A61FD928A509A609A50A0319FE
:1001B000A60AA81FE028A709A809A70A0319A80AE0
:1001C0001030A900F701FA01A60CA50C031CEE28BB
:1001D0002708F7070318FA0A2808FA07FA0CF70C99
:1001E000F90CF80CA90BE428AA1FFB28F809F90957
:1001F000F80A0319F90A0800831606148312061870
:100200003929C52083160614831206183929A31B21
:100210001029A308031D39292208133C031C39297E
:10022000A20A0319A30A2308A6002208A500A80110
:100230003230A700CE207908A6007808A500A60CC9
:10024000A50CA60CA50CA60C25089500A60C260C42
:100250003039F7001708CF39770497002308A60034
:100260002208A50050209C20831606148312061C29
:1002700033298A110A12D129831606158312061909
:100280007A29C52083160615831206197A29A31B1D
:100290007A29A308031D50292208003C03187A2953
:1002A00022080319A303A2032308A6002208A5001D
:1002B000A8013230A700CE207908A6007808A50052
:1002C000A60CA50CA60CA50CA60C25089500A60C42
:1002D000260C3039F7001708CF3977049700230828
:1002E000A6002208A50050209C2083160615831224
:1002F000061D74298A110A12D229831686148312C4
:1003000086188A29A301A20195012308A6002208C4
:10031000A50050208A110A12D32903081F3983002F
:10032000A301A201FF30A40083161F149F141F1500
:100330009F1107309C008313FF3086000030880037
:1003400087008312A400A40083168701831287010B
:1003500083168801831288012412240883168700DB
:1003600083120716241124088316870083120711AD
:100370002411240883168700831207110C3097007C
:100380000030F80006389200F9308316920083128C
:10039000A301A20195012308A6002208A500502070
:0C03A000FC283C297D299C20D02963000A
:02400E00723FFF
:00000001FF
;PIC16F877A
;CRC=39E2  CREATED="31-Mar-25 11:11"
