:1000000000308A00472800000A108A100A1182076F
:100010003F3406345B344F34003400340034003451
:10002000003400340A108A100A11820701340234A5
:1000300004340834831686018312860122080420C2
:10004000A300831688018312230888002208122047
:10005000A300831686018312230886000530A300BF
:100060002330840083130008031944280130F8006A
:10007000F701F70B3928F80B3828F130F700F70BA8
:100080003F280000800B36288A110A125E280308D8
:100090001F39830083161F149F141F159F110730EB
:1000A0009C0083130030860088008312A101210880
:1000B000033C031C60282108A2001A28A10A572823
:0400C000562863005B
:02400E00723FFF
:00000001FF
;PIC16F877A
;CRC=09DE  CREATED="13-Mar-25 11:16"
