:1000000000308A0039280000FF00030E8301A100A0
:100010000A08A0008A010408A2007708A300780853
:10002000A4007908A5007A08A600831383128B1D0B
:100030001B280B182C28220884002308F70024080A
:10004000F8002508F9002608FA0020088A00210E89
:100050008300FF0E7F0E09008A110A122F28AC09B7
:100060008316880183122C0888000B108A110A124B
:100070001B2803081F398300FF30AD0083161F14AF
:100080009F141F159F1107309C0083138312AC012E
:100090000330831686000030880087008312AD008D
:1000A0008316880183128801060800000B108B1547
:0E00B000C0308B04AB01FF30AA005D28630056
:02400E00723FFF
:00000001FF
;PIC16F877A
;CRC=BA11  CREATED="24-Mar-25 11:21"
