:1000000001308A00F02900000A108A100A118207C4
:100010003F3406345B344F3466346D347D340734FA
:100020007F346F3428308400831300080319262896
:100030000130F800F701F70B1B28F80B1A28F130F4
:10004000F700F70B21280000800B18280800831602
:10005000880183122708880083160610831206146D
:100060000330A80012208316061083120610831690
:10007000880183122608880083168610831286144E
:100080000330A80012208316861083128610831670
:10009000880183122508880083160611831206152D
:1000A0000330A800122083160611831206118A114C
:1000B0000A123D2AF801F901F701FA012B08031D84
:1000C00064282A0803197E281030AC000310A80DFC
:1000D000A90DF70DFA0D2B087A02031D71282A08C5
:1000E0007702031C7A282A08F702031CFA032B085C
:1000F000FA020314F80DF90DAC0B66288A110A12E6
:10010000472A8E30F7002908F8002808F900FA017C
:10011000F808031D95287908F800F9010830F7025E
:10012000F808031D9528F7019D280310F81B9C284B
:10013000F90DF80DF7039528F8138A110A12502AC1
:10014000280803191029B0002C0803191029B0073A
:100150000318B1287F30B002031C1029031910299D
:10016000B5288130B007031810293008F700F801CE
:10017000F901FA012908B400B4172A08B3002B08C2
:10018000B2001830B000B101321CDE282F08FA0787
:10019000031CD028F90A031DD028F80A0319B11747
:1001A0002E08F907031CD728F80A0319B1172D08E0
:1001B000AA00AA172A08F8070318B117B10DF80CFE
:1001C000F90CFA0CB40CB30CB20C0310B00BC3282E
:1001D0000130F70703181029F81BF528B40DFA0DA4
:1001E000F90DF80DF70303191029B41F0629FA0AAF
:1001F000031D0629F90A031D0629F80A031D06290D
:10020000F80CF90CFA0CF70A031910292908B100A7
:100210002D08B106B11F0E29F8171429F813142957
:10022000F701F801F901FA018A110A12612A8E30E8
:10023000F7002808F7022908F9002A08F800F9173A
:10024000F70803192E290310F908031D2A29F808B5
:1002500003192E29F90CF80CF70B2329A91F3529AE
:10026000F809F909F80A0319F90A8A110A126A2A1F
:100270002D082F068039B100AD1F4329AC09AD0907
:10028000AC0A0319AD0AAF1F4A29AE09AF09AE0A7D
:100290000319AF0AF801F901F701FA012F08031D4C
:1002A00054292E0803196E291030B0000310AC0D2C
:1002B000AD0DF70DFA0D2F087A02031D61292E08E6
:1002C0007702031C6A292E08F702031CFA032F0881
:1002D000FA020314F80DF90DB00B5629B11F752958
:1002E000F809F909F80A0319F90A08002908AD0004
:1002F0002808AC00AF010A30AE0038217708AA0008
:100300007A08AB00FA0077080420F800A700290853
:10031000AD002808AC00AF010A30AE0038217908E2
:10032000AB007808AA007908AD007808AC00AF01EE
:100330000A30AE0038217708AA007A08AB00FA002C
:1003400077080420F800A6002908AD002808AC00B2
:10035000AF016430AE0038217908AB007808AA00FC
:100360007908AD007808AC00AF010A30AE00382142
:100370007708AA007A08AB00FA0077080420F80092
:10038000A500A91BC929A908031DCA292808633C7F
:100390000318A501A91BD229A908031DD3292808E0
:1003A000093C0318A6018A110A12732AA308031D27
:1003B000DD292208283C0318E229831685118312BF
:1003C0008511ED29A308031DED292208253C031CF6
:1003D000ED2983168511831285158A110A12742A54
:1003E00003081F39830083161F149F141F159F11C4
:1003F00007309C00831301308500003086008800A0
:100400001F1383121F179F1383169F1783121F1426
:1004100083161F109F141F159F15F80083121F08C5
:10042000C73978049F000930F700F70B152A182AFE
:10043000A101A001A4012408633C031C3F2A003051
:10044000F8001F08C73978049F000930F700F70B40
:10045000272A2A2A1F151F192B2A1E08F90083167E
:100460001E088312A00779080318790FA10704302A
:10047000F700F70B392A3C2A2728A40A1B2A21084F
:10048000A9002008A800AB016430AA005A28790806
:10049000A1007808A0002108A9002008A800812850
:1004A0007A08AB007908AA007808A9007708A800A4
:1004B0002330AF00DB30AE007930AD007D30AC00D2
:1004C000A0287A08AB007908AA007808A900770864
:1004D000A80017297908A3007808A2002308A9001A
:1004E0002208A8007629D6296430A8001220182AEC
:0204F0006300A7
:02400E00723FFF
:00000001FF
;PIC16F877A
;CRC=5159  CREATED="19-Mar-25 10:14"
