:1000000000308A00B528000049080739F700490C7C
:10001000F800F80CF80C1F30F80578084B0784003E
:1000200083134C188317F801F80AF70A1828F80DFB
:10003000F70B1728CA0803192028780880042328FA
:10004000F809780880058A110A12982849080739A2
:10005000F700490CF800F80CF80C1F30F805780888
:100060004A07840083134B1883170008F800F70A27
:100070003A28F80CF70B39280130F8058A110A12D2
:100080009D28FF30C500C7014708033C031CB0286A
:1000900020304707840083130008C80083168601B8
:1000A0008312480886003130F700F70B552858288E
:1000B000831606168312061A5F28C601782883164F
:1000C00086168312861A67280130C60078288316A0
:1000D00006178312061B6F280230C6007828831685
:1000E00086178312861B77280330C6007828AE282F
:1000F0001430C800483084008313000803198E2888
:100100000130F800F701F70B8328F80B8228F13053
:10011000F700F70B89280000800B80283430460751
:10012000C800C9000130CA00CC018030CB000428CF
:100130004808C900CB01CA0126287818AE28470D07
:10014000F700F70DFC30F70577084607C5002430A7
:100150004507840083130008C500B028C70A442857
:100160004508F8008A110A12142903081F39830070
:10017000FF30C40083161F149F141F159F110730F2
:100180009C0083130E308312A0000D30A1000B30B1
:10019000A2000730A3000130A4000230A500033004
:1001A000A6000A30A7000430A8000530A9000630D8
:1001B000AA000B30AB000730AC000830AD000930AE
:1001C000AE000C30AF000E30B000B1010F30B20005
:1001D0000D30B3003F30B4000630B5005B30B600E0
:1001E0004F30B7006630B8006D30B9007D30BA00CE
:1001F0000730BB007F30BC006F30BD007730BE00E1
:100200007C30BF003930C0005E30C1007930C200A0
:100210007130C300F03083168600811300308800EF
:1002200088018312880141287808C400440F1929E5
:10023000252934304407840083130008C500831641
:1002400088018312450888002929831688018312B2
:0602500088011329630080
:02400E00723FFF
:00000001FF
;PIC16F877A
;CRC=E82A  CREATED="13-Mar-25 19:04"
