:1000000000308A00AE280000FF00030E8301A1002B
:100010000A08A0008A010408A2007708A300780853
:10002000A4007908A5007A08A600831383128C30F7
:100030008400001C1D280C182E2822088400230888
:10004000F7002408F8002508F9002608FA0020081F
:100050008A00210E8300FF0E7F0E09008A110A120A
:100060003F280A108A100A1182073F3406345B3495
:100070004F3466346D347D3407347F346F34A80ACE
:100080008E0148308F00E2308E0000000C108A1183
:100090000A121D282D08F8012C02031852282C08DA
:1000A000F7005E28F7010830AE00AC0DF70D2D0803
:1000B00077020318F700F80DAE0B552808002B083F
:1000C000AC000A30AD004A2077083120F800AA00C1
:1000D0002B08AC000A30AD004A2078083120F80027
:1000E000A9002B08093C0318A90108002B30840043
:1000F0008313000803198A280130F800F701F70B71
:100100007F28F80B7E28F130F700F70B85280000D8
:10011000800B7C2808008316880183122A08880037
:1001200083160610831206140230AB007620831665
:10013000061083120610831688018312290888008E
:1001400083168610831286140230AB007620831645
:100150008610831286108A110A12D22803081F39CA
:100160008300A701A80183161F149F141F159F1158
:1001700007309C00831300308600880088018312BA
:100180008801B53090008E0148308F00E2308E003B
:100190000000C0308B0483160C1483122708AB00B8
:1001A0005F208B282808033C0318DF28A801A70A32
:1001B00027083B3C031CA7012708AB005F20D12880
:0201C0006300DA
:02400E00723FFF
:00000001FF
;PIC16F877A
;CRC=AD5C  CREATED="23-Mar-25 10:59"
