:1000000000308A003B280000FF00030E8301A1009E
:100010000A08A0008A010408A2007708A300780853
:10002000A4007908A5007A08A600831383128C30F7
:100030008400001C1D280C182E2822088400230888
:10004000F7002408F8002508F9002608FA0020081F
:100050008A00210E8300FF0E7F0E09008A110A120A
:100060003128A709831688018312270888000C10FD
:100070008A110A121D2803081F39830083161F14D2
:100080009F141F159F1107309C00831300308800B8
:100090008312A70183168801831227088800B530D0
:1000A00090008E018F018E010000C0308B048316FA
:0600B0000C145928630046
:02400E00723FFF
:00000001FF
;PIC16F877A
;CRC=0638  CREATED="20-Mar-25 11:07"
