:1000000000308A00292800000A108A100A1182078D
:100010003F3406345B344F3466346D347D340734FA
:100020007F346F342230840083130008031926289C
:100030000130F800F701F70B1B28F80B1A28F130F4
:10004000F700F70B21280000800B18288A110A12EC
:100050004B2803081F39830083161F149F141F1594
:100060009F1107309C008313003088008312A00189
:10007000A01B3E282008093C031C4F282008042010
:10008000A100831688018312210888000230A10094
:100090009630A2001228A10B4828A00A3828372839
:0200A0006300FB
:02400E00723FFF
:00000001FF
;PIC16F877A
;CRC=AEF3  CREATED="03-Mar-25 19:24"
