:1000000001308A00BE29000020244F1054244127CB
:100010004810CC24C5264D100000A02B4526C32730
:10002000CD22202A4F10CD2155100000273084000A
:100030008313000803192A280130F800F701F70B91
:100040001F28F80B1E28F130F700F70B25280000B9
:10005000800B1C2808002D182F280812302808169D
:10006000831608128312AD1837288812382888168C
:100070008316881283122D193F2808134028081769
:10008000831608138312AD19472888134828881748
:100090008316881300008312851583168511502856
:1000A0000000831285118316851183120800AE01AA
:1000B0008316081600308312081A0130AE04831626
:1000C000881600308312881A0130F7000310F70DEC
:1000D0007708AE048316081700308312081B01301E
:1000E000F700F70DF70DFC30F7057708AE0483161F
:1000F000881700308312881B0130F700F70DF70DC9
:10010000F70DF830F7057708AE042E08F800080060
:1001100083168511851205128312851283168512A6
:1001200008168816081788178312051683160512F5
:100130000000831285158316851100008312572055
:100140007808AD008511831685110000831285158E
:10015000831685110000831257207808AC008511A2
:1001600083168511081288120813881383122D0E26
:10017000F700F030F70577082C04F8007808AC0099
:10018000AC1FC42883169028AA08031DC92885120D
:10019000CA2885168316851200008312051283165D
:1001A00005120000831285118316851183122B0E10
:1001B000AC000F30AC052C08AD002B202B080F39FC
:1001C000AC00AD002B2008002830A3000C30A400A8
:1001D0000130A5000630A600851183168511831213
:1001E00085128316851283120512831605120812D2
:1001F0008812081388138511851205120F30831297
:10020000A70016200130A2002208033C031C10297D
:100210000330AD002B200530A7001620A20A0429C8
:100220000230AD002B200530A7001620A2012208C5
:10023000033C031C27292330220784008313000872
:10024000A700AA012708AB008820A20A17298A1153
:100250000A12D029270B2D2930294030A800312936
:10026000A80101302602A80728088038A900AA01A1
:100270002908AB00882008002508073A03194A29F5
:100280000B3A03194F29063A03195729023A031961
:100290005D2962290130A600A7002A216729AA0149
:1002A0000130AB0088200230A700162067290130FA
:1002B000A6000230A7002A216729AA011030AB004E
:1002C000882067290130AA002508AB008820080093
:1002D0000B08A2008B13831603178C170C14000055
:1002E000000083120313A21B8B1703170C087F391E
:1002F0000319BC290313A20003170D080313A3005D
:1003000003170F080313A4002208A5003C212308AB
:1003100003178D000313240803178F0003130B0822
:10032000A5008B13831603178C170C140000000014
:1003300083120313A51B8B1703170C0D0E0D7F39AA
:100340000319BC290313A20003170D080313A3000C
:1003500003170F080313A4002208A5003C2123085B
:1003600003178D000313240803178F008D0A031948
:100370008F0A0313682903170313080003081F39A2
:100380008300A101A00183161F149F141F159F1144
:1003900007309C0083130030880085008312E42816
:1003A0000C30A5003C21043003178D0000308F0075
:1003B000031368210130A600A7012A210D3003177D
:0E03C0008D0000308F0003136821E5296300D3
:02400E00723FFF
:00000001FF
;PIC16F877A
;CRC=B99B  CREATED="28-Feb-25 18:50"
