:1000000002308A002B2A00000A108A100A11820787
:100010003F3406345B344F3466346D347D340734FA
:100020007F346F34F801F901F701FA012908031D43
:100030001C282808031936281030AA000310A60D22
:10004000A70DF70DFA0D29087A02031D29282808A3
:100050007702031C32282808F702031CFA03290838
:10006000FA020314F80DF90DAA0B1E288A110A12C0
:10007000752A8E30F7002708F8002608F900FA01E3
:10008000F808031D4D287908F800F9010830F70237
:10009000F808031D4D28F70155280310F81B5428B4
:1000A000F90DF80DF7034D28F8138A110A127E2A6C
:1000B000260803191D29B2002A0803191D29B202B6
:1000C000031C67287F30B20703181D296D28813073
:1000D000B202031C1D2903191D293208F700F8017B
:1000E000F901FA01B1012708B000B0172808AF00E4
:1000F0002908AE001930B2002D08AE02031890286E
:100100000130AF0203189028B00203189028B10202
:1001100003189028B10AB00AAF0A2D08AE07C2280A
:100120002C08AF020318AB280130B0020318AB282B
:10013000B1020318AB28B10AB00A2C08AF072D088A
:10014000AE07031CC228AF0A031DC228B00A031D54
:10015000C228B10AC2282B088038B0020318C1286F
:100160000130B1020318C128B10A2B088038B0074A
:100170002C08AF07031C9F28B00A031D9F28B10A53
:100180009F287A14B20BC528D0280310AE0DAF0DEE
:10019000B00DB10D0310FA0DF90DF80DB30D7C285B
:1001A000331CD8280310F80CF90CFA0CB30CDB281C
:1001B000F70303191D29B31B04290310AE0DAF0D5E
:1001C000B00DB10D2D08AE020318F0280130AF02BA
:1001D0000318F028B0020318F028B102031C1329F9
:1001E0002C08AF020318FB280130B0020318FB28CB
:1001F000B102031C13292B088038B002031804290C
:100200000130B102031C1329FA0A031D1329F90A4C
:10021000031D1329F80A031D1329F70A03191D29C1
:10022000F80CF90CFA0C2708B2002B08B206B21F22
:100230001B29F8172129F8132129F701F801F901E1
:10024000FA018A110A128F2A8E30F7002608F70267
:100250002708F9002808F800F917F70803193B29BF
:100260000310F908031D3729F80803193B29F90C75
:10027000F80CF70B3029A71F4229F809F909F80AE9
:100280000319F90A8A110A12982A2B082D068039B7
:10029000AF00AB1F5029AA09AB09AA0A0319AB0A80
:1002A000AD1F5729AC09AD09AC0A0319AD0AF80115
:1002B000F901F701FA012D08031D61292C08031922
:1002C0007B291030AE000310AA0DAB0DF70DFA0D0F
:1002D0002D087A02031D6E292C087702031C77294A
:1002E0002C08F702031CFA032D08FA020314F80D78
:1002F000F90DAE0B6329AF1F8229F809F909F80A35
:100300000319F90A08002708AB002608AA00AD0166
:100310000A30AC0045217708A8007A08A900FA0045
:1003200077080420F800A5002708AB002608AA00DB
:10033000AD010A30AC0045217908A9007808A80071
:100340007908AB007808AA00AD010A30AC0045215D
:100350007708A8007A08A900FA0077080420F800B6
:10036000A4002708AB002608AA00AD016430AC0049
:1003700045217908A9007808A8007908AB00780819
:10038000AA00AD010A30AC0045217708A8007A0820
:10039000A900FA0077080420F800A300A71BD629BB
:1003A000A708031DD7292608633C0318A301A71B30
:1003B000DF29A708031DE0292608093C0318A4012A
:1003C0008A110A12A12A2630840083130008031917
:1003D000F7290130F800F701F70BEC29F80BEB29AE
:1003E000F130F700F70BF2290000800BE929080033
:1003F000831688018312250888008316061083124D
:1004000006140330A600E32183160610831206109B
:1004100083168801831224088800831686108312AD
:1004200086140330A600E3218316861083128610FB
:10043000831688018312230888008316061183120D
:1004400006150330A600E321831606118312061158
:100450008A110A12A22A03081F39830083161F1467
:100460009F141F159F1107309C00831301308500D6
:10047000003088001F1383121F179F1383169F17C6
:1004800083121F1483161F109F141F159F15F80049
:1004900083121F08C73978049F000930F700F70B53
:1004A0004F2A522AA101A001A2012208633C031C89
:1004B0006D2A1F151F195A2A1E08F90083161E08D7
:1004C0008312A00779080318790FA1070430F700F9
:1004D000F70B682A6B2AA20A552A2108A7002008D0
:1004E000A600A9016430A80012287908A1007808A4
:1004F000A0002108A7002008A60039287A08A90032
:100500007908A8007808A7007708A600AA30AD00EF
:10051000F130AC000230AB008030AA0058287A08D5
:10052000A9007908A8007808A7007708A600242960
:100530007908A1007808A0002108A7002008A600DB
:080540008329F829522A630007
:02400E00723FFF
:00000001FF
;PIC16F877A
;CRC=2E01  CREATED="19-Mar-25 09:18"
