:1000000001308A00652900000A108A100A1182074F
:100010003F3406345B344F3466346D347D340734FA
:100020007F346F342A082C068039AE00AA1F1D28A1
:10003000A909AA09A90A0319AA0AAC1F2428AB090D
:10004000AC09AB0A0319AC0AF801F901F701FA018E
:100050002C08031D2E282B08031948281030AD004A
:100060000310A90DAA0DF70DFA0D2C087A02031D35
:100070003B282B087702031C44282B08F702031C9B
:10008000FA032C08FA020314F80DF90DAD0B302811
:10009000AE1F4F28F809F909F80A0319F90A0800F0
:1000A0002608AA002508A900AC010A30AB001220DE
:1000B0007708A7007A08A800FA0077080420F8005B
:1000C000A1002608AA002508A900AC010A30AB004F
:1000D00012207908A8007808A7007908AA007808F3
:1000E000A900AC010A30AB0012207708A7007A08FB
:1000F000A800FA0077080420F800A000A61B8628B4
:10010000A608031D87282508093C0318A00108003C
:10011000260828068039AA00A61F9328A509A60943
:10012000A50A0319A60AA81F9A28A709A809A70AB9
:100130000319A80A1030A900F701FA01A60CA50CB2
:10014000031CA8282708F7070318FA0A2808FA0743
:10015000FA0CF70CF90CF80CA90B9E28AA1FB5286D
:10016000F809F909F80A0319F90A08002630840089
:10017000831300080319C9280630F800F701F70BAC
:10018000BF28F80BBE287B30F700F70BC528800B83
:10019000BC28080083168801831221088800831672
:1001A0000611831206150130A600B620831606112B
:1001B0008312061183168801831220088800831693
:1001C0008611831286150130A600B620831686118B
:1001D000831286110800A5012508313C031CF32871
:1001E000CA20A50AEC280800A31BFD28A308031DAC
:1001F00022292208133C031C2229A20A0319A30A5C
:100200002308A6002208A500A8013230A7008820F4
:100210007908A6007808A500A60CA50CA60CA50CCC
:10022000A60C25089500A60C260C3039F7001708F7
:10023000CF39770497002308A6002208A500502094
:10024000EB202329CA208A110A12B529A31B2F29C2
:10025000A308031D54292208133C031C5429A20A95
:100260000319A30A2308A6002208A500A80132301A
:10027000A70088207908A6007808A500A60CA50C80
:10028000A60CA50CA60C25089B00A60C260C303944
:10029000F7001D08CF3977049D002308A600220827
:1002A000A5005020EB205529CA208A110A12B52931
:1002B000A301A20195019B012308A6002208A50025
:1002C0005020CA208A110A12B52903081F39830059
:1002D000A301A201FF30A40083161F149F141F1551
:1002E0009F1107309C008313033086000030880084
:1002F00087008312A40083168801831288012410CA
:1003000024088316870083120714241124088316F7
:100310008700831207110C309700A410240883165D
:100320008700831287100C309D000030F8000638DB
:100330009200F930831692008312A301A201950165
:100340009B012308A6002208A5005020831606144E
:1003500083120618AD29F428B52983168614831252
:0E0360008618B4292629B5295829A629630034
:02400E00723FFF
:00000001FF
;PIC16F877A
;CRC=601B  CREATED="30-Mar-25 18:37"
