:1000000000308A00B22800000A108A100A11820704
:100010003F3406345B344F3466346D347D340734FA
:100020007F346F34270829068039AB00A71F1D28AD
:10003000A609A709A60A0319A70AA91F2428A8091F
:10004000A909A80A0319A90AF801F901F701FA0197
:100050002908031D2E282808031948281030AA0053
:100060000310A60DA70DF70DFA0D29087A02031D3E
:100070003B2828087702031C44282808F702031CA1
:10008000FA032908FA020314F80DF90DAA0B302817
:10009000AB1F4F28F809F909F80A0319F90A0800F3
:1000A0002508A7002408A600A9010A30A8001220EC
:1000B0007708A6007A08A700FA0077080420F8005D
:1000C000A2002508A7002408A600A9010A30A8005C
:1000D00012207908A7007808A6007908FA007808A5
:1000E0000420F800A10021083F3C0319A1018A1156
:1000F0000A12CE28243084008313000803198E28A6
:100100000130F800F701F70B8328F80B8228F13053
:10011000F700F70B89280000800B80280800831661
:1001200088018312220888008316061083120614A1
:100130000330A4007A20831606108312061083165B
:100140008801831221088800831686108312861482
:100150000330A4007A2083168610831286108A1139
:100160000A12D42803081F39830083161F149F1412
:100170001F159F1107309C008313003086008800F4
:100180008312A001A01BC8282008633C031CD828A8
:10019000A5012008A400A41BA5035028A30123083F
:1001A000633C031CD6288F28A30ACF28A00AC228A4
:0401B000C1286300FF
:02400E00723FFF
:00000001FF
;PIC16F877A
;CRC=EF2F  CREATED="10-Mar-25 16:59"
