:1000000002308A006E2A0000FF00030E8301A10067
:100010000A08A0008A010408A2007708A300780853
:10002000A4007908A5007A08A600831383128C30F7
:100030008400001F1D280C1B2E2822088400230882
:10004000F7002408F8002508F9002608FA0020081F
:100050008A00210E8300FF0E7F0E09008A110A120A
:100060003F280A108A100A1182073F3406345B3495
:100070004F3466346D347D3407347F346F34A90ACD
:100080001F1940281E08F90083161E088312A707AF
:1000900079080318790FA8070430F700F70B4E28EA
:1000A00051280C138A110A121D282D308400831345
:1000B0000008031969280130F800F701F70B5E28E2
:1000C000F80B5D28F130F700F70B64280000800B77
:1000D0005B2808008316880183122C088800831689
:1000E0000610831206140330AD0055208316061047
:1000F000831206108316880183122B08880083164A
:100100008610831286140330AD00552083168610A6
:10011000831286108316880183122A0888008316AA
:100120000611831206150330AD0055208316061103
:10013000831206118A110A12A52AF801F901F701A2
:10014000FA013008031DA7282F080319C128103011
:10015000B1000310AD0DAE0DF70DFA0D30087A02A7
:10016000031DB4282F087702031CBD282F08F702AF
:10017000031CFA033008FA020314F80DF90DB10B51
:10018000A9288A110A12AF2A8E30F7002E08F8002B
:100190002D08F900FA01F808031DD8287908F8009D
:1001A000F9010830F702F808031DD828F701E02804
:1001B0000310F81BDF28F90DF80DF703D828F81302
:1001C0008A110A12B82A2D080319A829B900310882
:1001D0000319A829B902031CF2287F30B9070318B4
:1001E000A829F8288130B902031CA8290319A829D5
:1001F0003908F700F801F901FA01B8012E08B70033
:10020000B7172F08B6003008B5001930B900340808
:10021000B50203181B290130B60203181B29B702C7
:1002200003181B29B80203181B29B80AB70AB60A13
:100230003408B5074D293308B602031836290130B2
:10024000B70203183629B80203183629B80AB70AC4
:100250003308B6073408B507031C4D29B60A031D39
:100260004D29B70A031D4D29B80A4D293208803897
:10027000B70203184C290130B80203184C29B80AF8
:1002800032088038B7073308B607031C2A29B70A93
:10029000031D2A29B80A2A297A14B90B50295B2987
:1002A0000310B50DB60DB70DB80D0310FA0DF90D0D
:1002B000F80DBA0D07293A1C63290310F80CF90C44
:1002C000FA0CBA0C6629F7030319A829BA1B8F295F
:1002D0000310B50DB60DB70DB80D3408B5020318EF
:1002E0007B290130B60203187B29B70203187B294A
:1002F000B802031C9E293308B60203188629013070
:10030000B70203188629B802031C9E2932088038D8
:10031000B70203188F290130B802031C9E29FA0A7C
:10032000031D9E29F90A031D9E29F80A031D9E2913
:10033000F70A0319A829F80CF90CFA0C2E08B900D1
:100340003208B906B91FA629F817AC29F813AC2949
:10035000F701F801F901FA018A110A12C92A8E304F
:10036000F7002D08F7022E08F9002F08F800F917FA
:10037000F7080319C6290310F908031DC229F80854
:100380000319C629F90CF80CF70BBB29AE1FCD29B0
:10039000F809F909F80A0319F90A8A110A12D22A86
:1003A000320834068039B600B21FDB29B109B20920
:1003B000B10A0319B20AB41FE229B309B409B30A96
:1003C0000319B40AF801F901F701FA013408031D11
:1003D000EC2933080319062A1030B5000310B10DBB
:1003E000B20DF70DFA0D34087A02031DF92933080E
:1003F0007702031C022A3308F702031CFA033408AD
:10040000FA020314F80DF90DB50BEE29B61F0D2AEB
:10041000F809F909F80A0319F90A08002E08B200C8
:100420002D08B100B4010A30B300D0217708AF0025
:100430007A08B000FA0077083120F800AC002E08E6
:10044000B2002D08B100B4010A30B300D021790800
:10045000B0007808AF007908B2007808B100B401A4
:100460000A30B300D0217708AF007A08B000FA0054
:1004700077083120F800AB002E08B2002D08B1003B
:10048000B4016430B300D0217908B0007808AF001F
:100490007908B2007808B100B4010A30B300D02165
:1004A0007708AF007A08B000FA0077083120F8002A
:1004B000AA00AE1B612AAE08031D622A2D08633C08
:1004C0000318AA01AE1B6A2AAE08031D6B2A2D0869
:1004D000093C0318AB018A110A12DB2A03081F39F1
:1004E000830083161F149F141F159F1107309C0053
:1004F0008313013085000030860088008801831254
:10050000880183161F1383121F179F1383169F17CB
:1005100083121F1483161F109F141F159F15F800B8
:1005200083121F08C73978049F000930F700F70BC2
:10053000972A9A2AA901C0308B0483160C178312BC
:100540002908633C031CA72A6A281F15DE2A2808ED
:10055000AE002708AD00B0016430AF009D287908D7
:10056000A8007808A7002808AE002708AD00C42816
:100570007A08B0007908AF007808AE007708AD00BF
:10058000AA30B400F130B3000230B2008030B100C4
:10059000E3287A08B0007908AF007808AE00770841
:1005A000AD00AF297908A8007808A7002808AE0098
:1005B0002708AD000E2AA801A701A901A02A6300FF
:02400E00723FFF
:00000001FF
;PIC16F877A
;CRC=BD57  CREATED="23-Mar-25 11:09"
