:1000000003308A00942B0000FF00030E8301A1003F
:100010000A08A0008A010408A2007708A300780853
:10002000A4007908A5007A08A60003170D08031399
:10003000A70003170F080313A80003170C080313E6
:10004000A90003170E080313AA00831383128B1D44
:100050002B280B184C28220884002308F7002408BA
:10006000F8002508F9002608FA00270803178D0074
:100070000313280803178F000313290803178C00A4
:1000800003132A0803178E00031320088A00210E89
:100090008300FF0E7F0E09008A110A1282280A10BF
:1000A0008A100A11820750344934433431343634CB
:1000B0004634383437343734413400340A108A1027
:1000C0000A11820744344B342034543444344F34BE
:1000D0002034443443344F343A34003448308400BC
:1000E00083130008031981280630F800F701F70B85
:1000F0007728F80B76287B30F700F70B7D28800BEC
:10010000742808003230C8006E20831686168312C9
:10011000861A8D28AD01AE019E288316061783121C
:10012000061B96280130AD00AE009E288316861768
:100130008312861B9E280230AD00AE000608000028
:100140000B100B108A110A122B28C637F23B000045
:10015000533A6F3800015039653B00004518B2280A
:100160000812B3280816831608128312C518BA2875
:100170008812BB2888168316881283124519C22854
:100180000813C3280817831608138312C519CA2831
:100190008813CB28881783168813000083128515CF
:1001A000831685110330F700F70BD42883128511CD
:1001B0008316851183120800C601831608160030C5
:1001C0008312081A0130C604831688160030831281
:1001D000881A0130F7000310F70D7708C60483165C
:1001E000081700308312081B0130F700F70DF70DD8
:1001F000FC30F7057708C604831688170030831291
:10020000881B0130F700F70DF70DF70DF830F705F3
:100210007708C6044608F800080083168511851281
:100220000512831285128316851208168816081780
:100230008817831205168316051200008312851590
:100240008316851100008312DC207808C500851113
:1002500083168511000083128515831685113029B8
:10026000312900008312DC207808C4008511831630
:10027000851108128812081388138312450EF7009F
:10028000F030F70577084404F8007808C400C41F6C
:100290004B2983161529C208031D5029851251299F
:1002A0008516831685120000831205128316051227
:1002B000000083128511831685118312430EC4003A
:1002C0000F30C4054408C500AE2043080F39C400F0
:1002D000C500AE2008002830BB000C30BC00013047
:1002E000BD000630BE00851183168511831285126C
:1002F00083168512831205128316051208128812BE
:10030000081388138511851205128312AB018B1B0C
:10031000AB178B130F30C8006E20AB1B8B1701304F
:10032000BA003A08033C031CA3290330C500AE20E1
:10033000AB018B1BAB178B130530C8006E20AB1BBA
:100340008B17BA0A91290230C500AE20AB018B1B76
:10035000AB178B130530C8006E20AB1B8B17BA018F
:100360003A08033C031CC0293B303A07840083133E
:100370000008BF00C2013F08C3000D21BA0AB0291E
:100380008A110A12F02B3F0BC629C9294030C00040
:10039000CA29C00101303E02C00740088038C100B0
:1003A000C2014108C3000D2108003D08073A0319A6
:1003B000E3290B3A0319E829063A0319F629023A08
:1003C0000319FC29012A0130BE00BF00C321062AFF
:1003D000C2010130C3000D21AB018B1BAB178B1386
:1003E0000230C8006E20AB1B8B17062A0130BE00FE
:1003F0000230BF00C321062AC2011030C3000D2104
:10040000062A0130C2003D08C3000D2108000B0878
:10041000BA008B13831603178C170C14000000000E
:1004200083120313BA1B8B1703170C087F390319A8
:100430005B2A0313BA0003170D080313BB0003174D
:100440000F080313BC003A08BD00D5213B08031771
:100450008D0003133C0803178F0003130B08BD0026
:100460008B13831603178C170C14000000008312E3
:100470000313BD1B8B1703170C0D0E0D7F390319CA
:100480005B2A0313BA0003170D080313BB000317FD
:100490000F080313BC003A08BD00D5213B08031721
:1004A0008D0003133C0803178F008D0A03198F0A70
:1004B0000313072A031703130800AE08031D6C2A51
:1004C0000C30BE00BF01C321A53003178D000030E2
:1004D0008F0003130722892A2E0B7A2A0C30BE00C4
:1004E000BF01C321A83003178D0000308F00031314
:1004F0000722892A2E08023C031D892A0C30BE00DF
:10050000BF01C321AB3003178D0000308F000313F0
:1005100007220330AE008A110A12142CAD08031D05
:10052000A62A9B013608F9003508F800F90CF80CEA
:10053000F90CF80CF90C78089500F90C790C3039A5
:10054000F7001708CF3977049700C32A2D0BAB2A81
:1005500095019B01C32A2D08023C031DC32A950166
:100560003608F9003508F800F90CF80CF90CF80C0D
:10057000F90C78089B00F90C790C3039F7001D084C
:10058000CF3977049D008A110A12152CF801F90160
:10059000F701FA014108031DD02A40080319EA2A8D
:1005A0001030C2000310BE0DBF0DF70DFA0D41084B
:1005B0007A02031DDD2A40087702031CE62A400860
:1005C000F702031CFA034108FA020314F80DF90DAF
:1005D000C20BD22A0800B401B301AC012C08093CBB
:1005E000031C002B1F19F22A1E08F90083161E088F
:1005F0008312B30779080318790FB407AC0AEE2AFF
:100600003408BF003308BE00C1010A30C000C62252
:100610007908B4007808B3003408B6003308B50090
:100620003608BB003508BA003B08BF003A08BE00D8
:10063000C1010A30C000C62230307707B2003B0843
:10064000BF003A08BE00C1010A30C000C6227908C6
:10065000BD007808BC007908BF007808BE00C10161
:100660000A30C000C62230307707B1003B08BF0017
:100670003A08BE00C1016430C000C6227908BD003E
:100680007808BC007908BF007808BE00C1010A30B4
:10069000C000C62230307707B0003B08BF003A08E0
:1006A000BE000330C100E830C000C6227908BD009A
:1006B0007808BC007908BF007808BE00C1010A3084
:1006C000C000C62230307707AF002F08303C031D32
:1006D000772B2030AF003008303C031D772B2030C3
:1006E000B0003108303C031D772B2030B1000C30B6
:1006F000BE000130BF00C3212F08BD00D521300846
:10070000BD00D5213108BD00D5213208BD00D5215D
:10071000AB018B1BAB178B131430C8006E20AB1BC7
:100720008B178A110A12172C03081F398300B8018E
:10073000B701FF30B90083161F149F141F159F11B6
:1007400007309C00831304308500FF3086000030A2
:1007500087008312B9008316880083120608000000
:100760000B108B15C0308B04831681138312391044
:100770003908831687008312071439113908831644
:100780008700831207110C309700B91039088316BF
:100790008700831287100C309D000030F800063867
:1007A0009200F93083169200831295019B01831603
:1007B0001F1383121F179F1383169F1783121F1473
:1007C00083161F109F141F159F150030F800831209
:1007D0001F08C73978049F000130AD00AE006B29B7
:1007E0000C30BD00D5210130BE00BF00C321AC01DB
:1007F0002C08093C031C032C2C084F20BA00BD0018
:10080000D521AC0AF82B0130BE00BF01C321AC01D9
:100810002C080A3C031C132C2C085E20BA00BD00D7
:10082000D521AC0A082C5D2A8E2A1F15EB2A132C21
:02083000630063
:02400E00723FFF
:00000001FF
;PIC16F877A
;CRC=BE1E  CREATED="01-Apr-25 11:06"
