:1000000006308A00592E0000FF00030E8301A10074
:100010000A08A0008A010408A2007708A300780853
:10002000A4007908A5007A08A600831383128C30F7
:100030008400001F1D280C1B2E2822088400230882
:10004000F7002408F8002508F9002608FA0020081F
:100050008A00210E8300FF0E7F0E09008A110A120A
:100060003F280A108A100A1182073F3406345B3495
:100070004F3466346D347D3407347F346F341F1948
:100080003F281E08F90083161E088312A707790867
:100090000318790FA807003003180130A9070030B2
:1000A00003180130AA07BB0A0C138A110A121D2873
:1000B00048084A068039CC00C81F6328C709C80908
:1000C000C70A0319C80ACA1F6A28C909CA09C90A7E
:1000D0000319CA0AF801F901F701FA014A08031DD8
:1000E0007428490803198E281030CB000310C70D5F
:1000F000C80DF70DFA0D4A087A02031D8128490838
:100100007702031C8A284908F702031CFA034A08ED
:10011000FA020314F80DF90DCB0B7628CC1F9528A5
:10012000F809F909F80A0319F90A0800C41F9A28FE
:10013000C401C3014408C8004308C700CA010A300B
:10014000C90058207708C5007A08C600FA00770869
:100150003120F800BE004408C8004308C700CA01A7
:100160000A30C90058207908C6007808C500790807
:10017000C8007808C700CA010A30C90058207708AB
:10018000C5007A08C600FA0077083120F800BD00E3
:100190004408C8004308C700CA016430C900582099
:1001A0007908C6007808C5007908C8007808C70033
:1001B000CA010A30C90058207708C5007A08C6006D
:1001C000FA0077083120F800BC00C41BED28C408F1
:1001D000031DEE284308633C0318BC01C41BF6282A
:1001E000C408031DF7284308093C0318BD01080093
:1001F000433084008313000803190C290130F800F0
:10020000F701F70B0129F80B0029F130F700F70B84
:1002100007290000800BFE2808008316880183123E
:100220003E08880083160610831206140130C300AE
:10023000F820831606108312061083168801831295
:100240003D08880083168610831286140130C3008F
:10025000F820831686108312861083168801831275
:100260003C08880083160611831206150130C3006E
:10027000F82083160611831206118A110A12A02E85
:10028000831845294B3084008313F701F801F901E5
:10029000FA01CB01CC01CD01CE014A084904480442
:1002A0004704031983292030CF000310C30DC40D68
:1002B000C50DC60DCB0DCC0DCD0DCE0D4A084E0291
:1002C000031D6C2949084D02031D6C2948084C0286
:1002D000031D6C2947084B02031C7D294708CB02EC
:1002E0004808031C480FCC024908031C490FCD02E3
:1002F0004A08031C4A0FCE020314F70DF80DF90D3E
:10030000FA0DCF0B55294B088000840A4C08800059
:10031000840A4D088000840A4E0880008A110A125F
:10032000B12E8E30F7004408F8004308F900FA01B6
:10033000F808031DA5297908F800F9010830F7022B
:10034000F808031DA529F701AD290310F81BAC29F6
:10035000F90DF80DF703A529F8138A110A12BE2E1C
:100360005C080319202AE40060080319202AE40726
:100370000318C1297F30E402031C202A0319202A14
:10038000C5298130E4070318202A6408F700F80122
:10039000F901FA015D08E800E8175E08E7005F0868
:1003A000E6001830E400E501661CEE296308FA0750
:1003B000031CE029F90A031DE029F80A0319E517CF
:1003C0006208F907031CE729F80A0319E517610811
:1003D000DE00DE175E08F8070318E517E50DF80CD8
:1003E000F90CFA0CE80CE70CE60C0310E40BD3292B
:1003F0000130F7070318202AF81B052AE80DFA0D2B
:10040000F90DF80DF7030319202AE81F162AFA0A36
:10041000031D162AF90A031D162AF80A031D162AB7
:10042000F80CF90CFA0CF70A0319202A5D08E5000C
:100430006108E506E51F1E2AF817242AF813242A66
:10044000F701F801F901FA01080060080319EA2A26
:10045000EC0064080319EA2AEC02031C342A7F30FA
:10046000EC070318EA2A3A2A8130EC02031CEA2A34
:100470000319EA2A6C08F700F801F901FA01EB0107
:100480006108EA00EA176208E9006308E800193029
:10049000EC006708E80203185D2A0130E90203183E
:1004A0005D2AEA0203185D2AEB0203185D2AEB0AB3
:1004B000EA0AE90A6708E8078F2A6608E9020318CA
:1004C000782A0130EA020318782AEB020318782A06
:1004D000EB0AEA0A6608E9076708E807031C8F2A9F
:1004E000E90A031D8F2AEA0A031D8F2AEB0A8F2AC5
:1004F00065088038EA0203188E2A0130EB020318DF
:100500008E2AEB0A65088038EA076608E907031CAB
:100510006C2AEA0A031D6C2AEB0A6C2A7A14EC0B8B
:10052000922A9D2A0310E80DE90DEA0DEB0D031048
:10053000FA0DF90DF80DED0D492A6D1CA52A0310D1
:10054000F80CF90CFA0CED0CA82AF7030319EA2AA7
:10055000ED1BD12A0310E80DE90DEA0DEB0D67083C
:10056000E8020318BD2A0130E9020318BD2AEA0295
:100570000318BD2AEB02031CE02A6608E9020318EF
:10058000C82A0130EA020318C82AEB02031CE02A39
:1005900065088038EA020318D12A0130EB02031CF7
:1005A000E02AFA0A031DE02AF90A031DE02AF80AE4
:1005B000031DE02AF70A0319EA2AF80CF90CFA0CD1
:1005C0006108EC006508EC06EC1FE82AF817EE2A33
:1005D000F813EE2AF701F801F901FA01080080305A
:1005E0008318E506EA01EB016108E9006508E90600
:1005F00060080319DF2BE800F70064080319E82BF3
:10060000E8020319842B031C422B6508EE00EE1749
:100610006608ED006708EC00EB010310EE0CED0C32
:10062000EC0CEB0CE80B0C2BE91F192B6A14FC2BC0
:100630006A1068106A16633084008313112C6A12E2
:10064000E91B2C2B681C372BEE0CED0CEC0CEB0C87
:10065000F70A0319F72B372BEE1B3A2B0310EB0D80
:10066000EC0DED0DEE0DF7030319F72B2C2B6A178C
:10067000A42B6A136108E900E91F402BEE17F02B49
:10068000EE13F02B6408E800F7006008E802610848
:10069000EE00EE176208ED006308EC00EB010310BA
:1006A000EE0CED0CEC0CEB0CE80B4E2BE91F5B2B6E
:1006B000EA14FC2BEA106810EA16673084008313F2
:1006C000112CEA12E91B6E2B681C792BEE0CED0C39
:1006D000EC0CEB0CF70A0319F72B792BEE1B7C2B98
:1006E0000310EB0DEC0DED0DEE0DF7030319F72BD9
:1006F0006E2BEA17A42BEA136508E900E91F822B89
:10070000EE17F02BEE13F02B6508EE00EE176608DF
:10071000ED006708EC00E91F912BEE136A15FC2B26
:100720006A11EB016810633084008313112CE91BFC
:10073000BA2B6108E900681CA42BEE0CED0CEC0C44
:10074000EB0CF70A0319F72BEB1FB52BEC0A031D73
:10075000B52BED0A031DB52BEE0A031DB52BEE0CD0
:10076000ED0CEC0CF70A0319F72B6A1B392BEA1B6B
:100770007B2BD92B8030EE06EE1FC22BFC2B65089D
:10078000E900CF2B6108E900EE08031DCF2BED082F
:10079000031DCF2BEC08031DCF2BF701F02BEE1B15
:1007A000D92B0310EB0DEC0DED0DEE0DF70BCF2B50
:1007B000F72BE91FDD2BEE17F02BEE13F02B64085F
:1007C000F7006508EE006608ED006708EC00F02B06
:1007D0006008F7006108EE006208ED006308EC00B5
:1007E0006E08F8006D08F9006C08FA002F2CF7016C
:1007F000F801F901FA012F2CEB01EC09ED09EE09E2
:10080000EB09EB0A031D0A2CEC0A031D0A2CED0A66
:100810000319EE0A6A18182BEA185A2B6A19902B3A
:10082000BF2B0008EC07031C1B2CED0A031D1B2C1F
:10083000EE0A0319681484030008ED07031C232C37
:10084000EE0A0319681484030008801F803AEE073B
:10085000031868146A1A1F2BEA1A612B972B0800D9
:100860008E30F7005D08F8005C08F900FA01DD1F22
:100870003E2CF809F909F90A0319F80AF808031DCA
:100880004B2C7908F800F9010830F702F808031D2D
:100890004B2CF701542C0310F81B522CF90DF80DBA
:1008A000F7034B2CDD1FF81308004A08CE00490857
:1008B000CD004808CC004708CB004E08DF004D08AB
:1008C000DE004C08DD004B08DC00E301E201E10141
:1008D0007F30E0005D08E4006108E406E41F752C49
:1008E00003110310DD1B0314A82C5D08E40060084D
:1008F000E5005C08E5020319832CE41FA82C03081B
:10090000013A8300A82C6108E5005D08E50203199F
:100910008F2CE41FA82C0308013A8300A82C62083E
:10092000E5005E08E50203199B2CE41FA82C0308D0
:10093000013A8300A82C6308E5005F08E50203196B
:10094000A72CE41FA82C0308013A8300A82C03104D
:100950000319292EDD014B30DC005C088400831371
:100960005D1883177E30800083144E08E3004D0825
:10097000E2004C08E1004B08E000E701E601E50178
:100980007F30E400EF227A08DF007908DE00780883
:10099000DD007708DC0083104E08E3004D08E2001C
:1009A0004C08E1004B08E000E701E601E5017F307B
:1009B000E400EF225F08E3005E08E2005D08E1006A
:1009C0005C08E0007A08E7007908E6007808E500AE
:1009D0007708E40025227A08CE007908CD0078084F
:1009E000CC007708CB004E08DF004D08DE004C0835
:1009F000DD004B08DC004E08E3004D08E2004C0827
:100A0000E1004B08E000B0217A08DA007908D9004B
:100A10007808D8007708D7009930DF004730DE002B
:100A20008A30DD007F30DC005A08E3005908E2001C
:100A30005808E1005708E000B0217A08DF00790883
:100A4000DE007808DD007708DC0083107A08E30018
:100A50007908E2007808E1007708E000E701E601A4
:100A6000E5018030E400EF227A08D2007908D10055
:100A70007808D0007708CF004C30DF00F330DE007C
:100A80003A30DD007B30DC005A08E3005908E20010
:100A90005808E1005708E000B0217A08DF00790823
:100AA000DE007808DD007708DC0083107A08E300B8
:100AB0007908E2007808E1007708E0002B30E700D1
:100AC0009D30E600DF30E5007E30E400EF227A085A
:100AD000D6007908D5007808D4007708D3005608E6
:100AE000DF005508DE005408DD005308DC005A081A
:100AF000E3005908E2005808E1005708E000B0217F
:100B00007A08DF007908DE007808DD007708DC006D
:100B100083107A08E3007908E2007808E10077089A
:100B2000E000E701E601E5017F30E400EF227A080A
:100B3000D6007908D5007808D4007708D3004E088D
:100B4000DF004D08DE004C08DD004B08DC005208D9
:100B5000E3005108E2005008E1004F08E000B02136
:100B60007A08DF007908DE007808DD007708DC000D
:100B70007A08E3007908E2007808E1007708E000ED
:100B80005608E7005508E6005408E5005308E4005D
:100B900025227A08D2007908D1007808D000770899
:100BA000CF00DD014730DC005C08840083135D1852
:100BB00083177E300002DB00DB1FEF2D5B08003C5B
:100BC000DD01DC00DC1BDD0330247708D30078086E
:100BD000803AD4007908D5007A08D600FD2DDD01D1
:100BE0005B08DC00DC1BDD0330247A08D6007908C2
:100BF000D5007808D4007708D3005608DF005508E0
:100C0000DE005408DD005308DC001830E3007230C9
:100C1000E2003130E1007E30E000B0218310520864
:100C2000E3005108E2005008E1004F08E0007A08B4
:100C3000E7007908E6007808E5007708E400EF228D
:100C40007A08D2007908D1007808D0007708CF0060
:100C50002D2ED201D101D001CF014F08F70050084D
:100C6000F8005108F9005208FA008A110A12362FCA
:100C70008E30F7004308F7024408F9004508F800F1
:100C8000F917F70803194F2E0310F908031D4B2E0F
:100C9000F80803194F2EF90CF80CF70B442EC41F5B
:100CA000562EF809F909F80A0319F90A8A110A12E5
:100CB000992F03081F398300AA01A901A801A701E0
:100CC00083161F149F141F159F1107309C00831358
:100CD000003086008601831286010130831685006C
:100CE0000030880088018312880183161F13831245
:100CF0001F179F1383169F1783121F1483161F102D
:100D00009F141F159F15F80083121F08C739780418
:100D10009F000930F700F70B8B2E8E2EC0308B040E
:100D200083160C178312BB01BA01B9013A08C4003B
:100D30003908C30096203B08093C031CA22E0D294C
:100D40001F15A82F83102A08C6002908C5002808E7
:100D5000C4002708C300CA01C901C8010A30C7007E
:100D600040297808AC007708AB00AA01A901A801C6
:100D7000A7012C08C4002B08C30091297A08DF00C2
:100D80007908DE007808DD007708DC000A30E3002F
:100D90002830E2002030E1007730E000B0217A080E
:100DA000C2007908C1007808C0007708BF00E301DD
:100DB000E2012030E1008130E0004208E700410814
:100DC000E6004008E5003F08E40025227A08C60056
:100DD0007908C5007808C4007708C30083147A082E
:100DE000E3007908E2007808E1007708E000E70115
:100DF000E601E5017F30E400EF22DF014030DE0054
:100E00001C30DD008C30DC007A08E3007908E20059
:100E10007808E1007708E000B0217A08B40079088A
:100E2000B3007808B2007708B1003408E300330853
:100E3000E2003208E1003108E000E7014030E6005E
:100E40001C30E5008C30E40025227A08C6007908C1
:100E5000C5007808C4007708C3007A08CA0079087A
:100E6000C9007808C8007708C700552C7A08B00078
:100E70007908AF007808AE007708AD003008E300CD
:100E80002F08E2002E08E1002D08E000E701E03025
:100E9000E6007630E5008A30E40025227A08C600B4
:100EA0007908C5007808C4007708C30083107A0861
:100EB000E3007908E2007808E1007708E0000F30ED
:100EC000E700CF30E6005B30E5007630E400EF224B
:100ED000E301E201E1017F30E0007A08E7007908F0
:100EE000E6007808E5007708E40025227A08B800D3
:100EF0007908B7007808B6007708B5008314380879
:100F0000E3003708E2003608E1003508E00033303E
:100F1000E7009330E6000830E5008730E400EF2278
:100F20007A08C6007908C5007808C4007708C300AD
:100F3000382E7908BA007808B9003A08C400390890
:100F4000C3009620BB010430F700F70BA52FA82F94
:040F50009B2E630071
:02400E00723FFF
:00000001FF
;PIC16F877A
;CRC=DE2D  CREATED="30-Mar-25 10:40"
