:1000000001308A0033290000343084008313000853
:10001000031918280130F800F701F70B0D28F80B29
:100020000C28F130F700F70B13280000800B0A288A
:100030000800831606148312061838282F1C272858
:10004000A00A0319A10AB101B0012F103728B00A84
:100050000319B10AB108031D31283008963C031872
:100060003728A00A0319A10A3230B40004203B2823
:100070002F14B101B0018A110A1267298316861460
:10008000831286185F28AF1C4D2820080319A1038E
:10009000A003B301B201AF105E28B20A0319B30A7C
:1000A000B308031D57283208963C03185E28200821
:1000B0000319A103A0033230B40004206228AF1456
:1000C000B301B2018A110A12682939083B06803946
:1000D000BD00B91F7028B809B909B80A0319B90ACF
:1000E000BB1F7728BA09BB09BA0A0319BB0AF80172
:1000F000F901F701FA013B08031D81283A080319A9
:100100009B281030BC000310B80DB90DF70DFA0D87
:100110003B087A02031D8E283A087702031C9728B1
:100120003A08F702031CFA033B08FA020314F80D1D
:10013000F90DBC0B8328BD1FA228F809F909F80A9C
:100140000319F90A08003508B9003408B800BB01E2
:100150000A30BA00652022307707840083137A18AA
:1001600083170008AE003508B9003408B800BB0199
:100170000A30BA0065207908B7007808B600790817
:10018000B9007808B800BB010A30BA0065202230F7
:100190007707840083137A1883170008AD003508A9
:1001A000B9003408B800BB016430BA006520790892
:1001B000B7007808B6007908B9007808B800BB0124
:1001C0000A30BA00652022307707840083137A183A
:1001D00083170008AC00B51BF328B508031DF428ED
:1001E0003408633C0318AC01B51BFC28B508031D9B
:1001F000FD283408093C0318AD018A110A126D2943
:100200008316880183122E08880083160910831232
:1002100009140230B4000420831609108312091057
:100220008316880183122D08880083168910831293
:1002300089140230B40004208316891083128910B7
:100240008316880183122C088800831609118312F3
:1002500009150230B4000420831609118312091114
:100260008A110A126E2903081F398300A101A00117
:100270002F14AF14B101B001B301B20183161F14E2
:100280009F141F159F1107309C0083133F3083126A
:10029000A2000630A3005B30A4004F30A5006630FA
:1002A000A6006D30A7007D30A8000730A9007F3080
:1002B000AA006F30AB000330831686000910891046
:1002C0000911003088008312A101A00119283E28DD
:1002D0002108B5002008B400A3280029662963007E
:02400E00723FFF
:00000001FF
;PIC16F877A
;CRC=DBC7  CREATED="13-Mar-25 17:39"
