:1000000002308A00042A00003A004326CF214B1D0B
:100010000001C827202AC8204E242026C9224D00CE
:100020002930840083130008031924280130F800C4
:10003000F701F70B1928F80B1828F130F700F70B28
:100040001F280000800B162808002F1829280812E6
:100050002A280816831608128312AF18312888122E
:10006000322888168316881283122F19392808130C
:100070003A280817831608138312AF1941288813EA
:10008000422888178316881300008312851583166B
:1000900085114A2800008312851183168511831269
:1000A0000800B0018316081600308312081A0130C8
:1000B000B0048316881600308312881A0130F700C6
:1000C0000310F70D7708B004831608170030831269
:1000D000081B0130F700F70DF70DFC30F705770826
:1000E000B0048316881700308312881B0130F70094
:1000F000F70DF70DF70DF830F7057708B004300865
:10010000F8000800831685118512051283128512E6
:100110008316851208168816081788178312051685
:1001200083160512000083128515831685110000C1
:10013000831251207808AF008511831685110000C5
:1001400083128515831685110000831251207808CB
:10015000AE008511831685110812881208138813C2
:1001600083122F0EF700F030F70577082E04F80001
:100170007808AE00AE1FBE2883168A28AC08031D7F
:10018000C3288512C42885168316851200008312A1
:10019000051283160512000083128511831685113E
:1001A00083122D0EAE000F30AE052E08AF002520B5
:1001B0002D080F39AE00AF00252008002830A5001B
:1001C0000C30A6000130A7000630A8008511831668
:1001D00085118312851283168512831205128316E8
:1001E000051208128812081388138511851205124A
:1001F0000F308312A90010200130A4002408033C12
:10020000031C0A290330AF0025200530A900102067
:10021000A40AFE280230AF0025200530A9001020D6
:10022000A4012408033C031C212925302407840051
:1002300083130008A900AC012908AD008220A40A9C
:1002400011298A110A12132A290B27292A29403039
:10025000AA002B29AA0101302802AA072A088038FF
:10026000AB00AC012B08AD00822008002708073A3C
:10027000031944290B3A03194929063A031951294C
:10028000023A031957295C290130A800A90024214A
:100290006129AC010130AD0082200230A90010209C
:1002A00061290130A8000230A90024216129AC0194
:1002B0001030AD00822061290130AC002708AD006C
:1002C000822008000B08A4008B13831603178C17D9
:1002D0000C140000000083120313A41B8B170317D8
:1002E0000C087F390319B6290313A40003170D085E
:1002F0000313A50003170F080313A6002408A70083
:100300003621250803178D000313260803178F00D5
:1003100003130B08A7008B13831603178C170C14F9
:100320000000000083120313A71B8B1703170C0D8B
:100330000E0D7F390319B6290313A40003170D0806
:100340000313A50003170F080313A6002408A70032
:100350003621250803178D000313260803178F0085
:100360008D0A03198F0A0313622903170313080068
:100370002508F80124020318C0292408F700CC2915
:10038000F7010830A600A40DF70D25087702031821
:10039000F700F80DA60BC32908000C30A8000130A7
:1003A000A90024212008A4000A30A500B82130307B
:1003B0007807A400A70036212008A4000A30A50071
:1003C000B82130307707A400A70036210430031786
:1003D0008D0000308F00031362212108A4000A3031
:1003E000A500B82130307807A400A70036212108E5
:1003F000A4000A30A500B82130307707A400A70078
:1004000036218A110A122F2A03081F398300A301FB
:10041000A20183161F149F141F159F1107309C0003
:1004200083138312DE280C30A70036210130A80088
:10043000A9002421053003178D0000308F0003131D
:1004400062210130A800A9012421093003178D0081
:1004500000308F0003136221A001A101CD290430D7
:10046000A400FA30A9001020A40B312AA10A210807
:100470003C3C031D412AA101A00A20083C3C031971
:06048000A0012E2A63001A
:02400E00723FFF
:00000001FF
;PIC16F877A
;CRC=4F9E  CREATED="28-Feb-25 19:16"
