:1000000000308A0050280000FF00030E8301A10089
:100010000A08A0008A010408A2007708A300780853
:10002000A4007908A5007A08A600831383128C30F7
:100030008400001C1D280C182E2822088400230888
:10004000F7002408F8002508F9002608FA0020081F
:100050008A00210E8300FF0E7F0E09008A110A120A
:100060003128A709831688018312270888000C10FD
:100070008A110A121D282B308400831300080319EB
:100080004F280130F800F701F70B4428F80B4328FC
:10009000F130F700F70B4A280000800B41280800D8
:1000A00003081F39830083161F149F141F159F1107
:1000B00007309C00831300308600FF308312A800B5
:1000C0008316860183122808860000308316880074
:1000D000FF308312A7008316880183122708880047
:1000E000B53090008E0148308F00E2308E00000065
:1000F0000C10C0308B0483160C148312A90129083C
:10010000073C031C93280310A80D83168601831255
:10011000280886000230AA009630AB003B20AA0BCC
:100120008C28A90A7F28A9012908073C031CAA28B2
:100130000310280D013EA8008316860183122808AB
:1001400086000230AA009630AB003B20AA0BA32801
:08015000A90A94287E2863002F
:02400E00723FFF
:00000001FF
;PIC16F877A
;CRC=D9DA  CREATED="20-Mar-25 11:29"
