:1000000000308A0019280000233084008313000880
:10001000031918280130F800F701F70B0D28F80B29
:100020000C28F130F700F70B13280000800B0A288A
:10003000080003081F39830083161F149F141F151F
:100040009F1107309C008313003088008312A101A8
:10005000831688018312210888000230A200FA303A
:10006000A3000420A20B2F28A0012008073C031C9A
:100070004B280310210D013EA10083168801831235
:10008000210888000230A200FA30A3000420A20B4D
:100090004428A00A3528A0012008073C031C60283A
:1000A0000310A10D831688018312210888000230F5
:1000B000A200FA30A3000420A20B5928A00A4C2861
:0400C000342863007D
:02400E00723FFF
:00000001FF
;PIC16F877A
;CRC=A6BE  CREATED="28-Feb-25 19:29"
