:1000000000308A00B0280000FF00030E8301A10029
:100010000A08A0008A010408A2007708A300780853
:10002000A4007908A5007A08A600831383120B1E8A
:100030001B288B182C28220884002308F70024088A
:10004000F8002508F9002608FA0020088A00210E89
:100050008300FF0E7F0E09008A110A123D280A1044
:100060008A100A1182073F3406345B344F346634F9
:100070006D347D3407347F346F3483160614831255
:10008000061C2B148B108A110A121B282F08F8014A
:100090002E0203184E282E08F7005A28F7010830C0
:1000A000B000AE0DF70D2F0877020318F700F80D1A
:1000B000B00B512808002D08AE000A30AF004620D2
:1000C00077082F20F800A9002D08AE000A30AF00F5
:1000D000462078082F20F800A8002D08093C0318B6
:1000E000A80108002D308400831300080319862816
:1000F0000130F800F701F70B7B28F80B7A28F13074
:10010000F700F70B81280000800B78280800831681
:1001100088018312290888002C102C088316870078
:10012000831207140230AD0072202C102C088316A5
:10013000870083120710831688018312280888001D
:10014000AC102C0883168700831287140230AD0090
:100150007220AC102C0883168700831287100800C9
:1001600003081F398300FF30AC0083161F149F144F
:100170001F159F1107309C0083130130860000304B
:10018000880087008312AC008316880183128801DF
:100190000B16831601138312A7012B10C0308B049A
:1001A0002708AD005B2087202B1CEB280B138B133B
:1001B0008B1BD728A70A2B102708633C031CA70119
:1001C0002708AD005B20AA012A08313C031CEB285C
:0A01D0008720AA0AE428CE28630065
:02400E00723FFF
:00000001FF
;PIC16F877A
;CRC=77B0  CREATED="23-Mar-25 11:30"
